S01700004C4D39325F746865726D6F737461742E737265635F
S11300000C9434000C9451000C9451000C94510045
S11300100C9451000C9451000C9451000C94510018
S11300200C9451000C9451000C9451000C94510008
S11300300C9451000C9451000C9451000C945100F8
S11300400C9451000C9451000C9451000C945100E8
S11300500C9451000C9451000C9451000C945100D8
S11300600C9451000C94510011241FBECFEFD8E022
S1130070DEBFCDBF11E0A0E0B1E0EEECF1E002C0E4
S113008005900D92A633B107D9F721E0A6E3B1E0BC
S113009001C01D92A633B207E1F70E94D2000C946E
S11300A0E5000C94000088B1806388B980E28093F5
S11300B0B800ECEBF0E0808184608083089584B123
S11300C0836084B98AB1806F8AB90895299A85EDCD
S11300D08A95F1F70000299808959BB19F709BB908
S11300E084FD5C9A85FD5D9A86FD5E9A87FD5F9A24
S11300F00C946600CF93C82F0E946D008C2F8295BC
S1130100807FCF910C946D0028980C947A00289AE3
S11301100C947A000E945F008FE59AEE0197F1F744
S113012000C0000080E30E9484008FE19EE40197F8
S1130130F1F700C0000080E30E94840087E592E0AC
S11301400197F1F700C0000080E30E94840087EC6F
S113015090E00197F1F700C0000083E30E9484005F
S113016082E30E94840088E20E9484008EE00E9460
S1130170840086E00E94840081E00E9484008FED68
S11301809EE20197F1F700C000000895CF93DF933A
S1130190EC018991882319F00E948700FACFDF913E
S11301A0CF9108950E9453000E948A0080E091E05C
S11301B00E94C600229A2FEF8BE792E921508040DB
S11101C09040E1F700C00000FFCFF894FFCF9D
S11301CE4C4D393220546865726D6F737461742EA0
S11301DE2E2E0054656D703A200048656174657268
S11301EE206973204F4E00486561746572206973EF
S10901FE204F46460000FC
S9030000FC
